:020000040000FA
:1000000068300020F9000000010100000301000039
:1000100005010000070100000901000000000000C8
:100020000000000000000000000000000B010000C4
:100030000D0100000000000085040000496300007D
:100040001301000013010000130100001301000060
:100050001301000013010000956F0000CD70000037
:100060001301000013010000130100004D380000CF
:100070001301000013010000130100001301000030
:1000800013010000A550000013010000130100003F
:100090001301000013010000130100001301000010
:1000A0001301000013010000130100001301000000
:1000B00013010000130100001301000013010000F0
:1000C00013010000130100001301000013010000E0
:1000D00013010000130100001301000013010000D0
:1000E00013010000DFF80CD000F056F9004800477B
:1000F000957E00006830002006488047064800478B
:10010000FEE7FEE7FEE7FEE7FEE7FEE7FEE7FEE7C7
:10011000FEE7FEE76D630000E500000010B5441A3D
:100120000346944209D28418114403E011F8013DBA
:1001300004F8013D521EF9D210BD40EA0104A407A3
:1001400003D009E010C9121F10C3042AFAD203E039
:1001500011F8014B03F8014B521EF9D210BDD2B277
:1001600001E000F8012B491EFBD270470022F6E7A0
:1001700010B513460A4604461946FFF7F0FF20461D
:1001800010BD421C10F8011B0029FBD1801A7047DA
:10019000F0B480EA0102D40F4200B2EB410F02D268
:1001A0000246084611464A0042D0C30DDDB2C1F3F3
:1001B000C752AD1A202D35DAC1F3160141F4000201
:1001C00004B15242C5F1200602FA06F12A41104458
:1001D000B3EBD05F23D0C4B1012DA0EBC35009DC39
:1001E000F0BC4FF0004202EAC35200F50000DBB25F
:1001F00000F0A5B8400000F1807000EBC350A0F102
:10020000807040EAD170490009E0490841EAC071B4
:10021000A0EBC35000F50000400800EBC350F0BC59
:1002200000F084B86142012202EB4101001BF6E7B5
:10023000F0BC704781F00041AAE780F00040A7E7DA
:1002400030B480EA010202F0004530F0004221F0B3
:10025000004015D0A0B1C0F3C753C2F3C754C2F3D6
:100260001601C0F31600E41A41F4000140F4000244
:100270007D34914201D3641C00E04900002C02DA75
:1002800030BC002070474FF400000023914201D39E
:10029000891A034340084FEA4101F7D151B1914215
:1002A00002D14FF0004105E002D24FF0010101E020
:1002B0006FF0010103EBC450284430BC00F036B8A5
:1002C00096230022114600F03AB820F00040C10DFC
:1002D000C0F3160040F400007F2901DA00207047C7
:1002E000962903DCC1F19601C840704796398840D1
:1002F000704700E0401E0028FCDC7047FFFFFFFF56
:1003000030B50B46014600202022012409E021FAE5
:1003100002F59D4205D303FA02F5491B04FA02F5E2
:100320002844151EA2F10102F1DC30BD0029A8BF4E
:100330007047401C490008BF20F00100704710B40E
:10034000B0FA80FC00FA0CF050EA010404BF10BCC3
:10035000704749B1CCF1200421FA04F411FA0CF1F0
:1003600018BF012121430843A3EB0C01CB1D01065B
:10037000000A002BBEBF002010BC704700EBC3502A
:1003800010440029A4BF10BC7047401C490008BF9E
:1003900020F0010010BC7047064C074D06E0E068F5
:1003A00040F0010394E8070098471034AC42F6D3BC
:1003B000FFF79CFEA4CB0000E4CB000070B501EB7E
:1003C000020410F8015B15F0070301D110F8013B9E
:1003D0002A1106D110F8012B03E010F8016B01F887
:1003E000016B5B1EF9D12B0705D40023521E0FD4DD
:1003F00001F8013BFAE710F8013B02F10202A1EB20
:10040000030303E013F8015B01F8015B521EF9D509
:10041000A142D6D3002070BD72B606B431490A7825
:1004200002F101020A7006BC704706B42D490A7831
:10043000A2F101020A704FF00001002A81F3108836
:1004400006BC7047284C294D25604FF0000484F30A
:100450000988274C4FF001052570264C4FF0805538
:10046000256062B6FEE730B4224C4FF0805525601F
:1004700030BC704730B41F4C4FF08055256030BC05
:10048000704700BFEFF3108372B6EFF30980F8B145
:10049000A0F1200080E8F00F174C2468206000B520
:1004A000164880475DF804EB154C164D2E782670E3
:1004B000114C154E36682660306890E8F00F00F158
:1004C000200080F309884EF0040E83F310887047F3
:1004D00000B508F001FB5DF804EBE0E700BF72B681
:1004E000704700005400002020ED00E00000FFFFF6
:1004F0004F00001004ED00E058000010154300000C
:100500004400001045000010600000102DE9F0418B
:100510000446002700260FE0052000F071F800BF18
:10052000052000F061F80028FAD1052000F03CF821
:1005300005462F44701CC6B2A642EDDBB7FBF4F8AB
:100540004046BDE8F08100001249096841F480513D
:10055000114AC2F8C4101149D1F8FC1021F09F01D2
:100560000E4AC2F8FC101146D1F8FC1041F003010C
:10057000C2F8FC100A490968B1FBF0F1A1F10101D0
:100580004FF0200242EA012141F40011054A1160B6
:1005900070470000C4C00F4000C00F4000C00240C0
:1005A000600000200040034010B5014600230A29E6
:1005B00003DB00216FF07F4010BD0A48006820F087
:1005C000E060084C20600748103050F8212012F0FD
:1005D000804F02D06FF07F40EEE7C2F30B13184656
:1005E000EAE700000040034001460A2900DB002141
:1005F000024A52F82120D00F7047000010400340FB
:100600000A2800DB0020054909680122824042F0E7
:1006100080721143014A116070470000004003409E
:100620007848006A40F48030764908620846C06B1A
:1006300040F48030C8630846006C20F40070086401
:100640000846006A20F4007008620846006C40F416
:10065000004008640846C06D40F40040C865084684
:10066000006C40F4804008640846C06D40F480404F
:10067000C8650846006A40F0200008620846C06B62
:1006800040F02000C8630846006E40F00070086625
:100690000846806F40F0007088670846006E40F0A2
:1006A000040008660846C06F40F00400C8670846AA
:1006B000C06D40F48050C8650846006C40F480501E
:1006C00008640846806F40F0806088670846006EC6
:1006D00040F0806008660846806940F480108861B8
:1006E0000846006840F4801008600846C06D40F479
:1006F0000060C8650846006C40F400600864084665
:10070000806D40F4006088650846006C40F400602D
:1007100008640846C06940F48010C8610846006853
:1007200040F4801008600846C06D40F40060C86561
:100730000846006C40F4006008640846806D40F490
:10074000006088650846006C40F400600864084654
:10075000C06D40F48070C8650846006C40F480703D
:1007600008640846806940F40020886108460068F3
:1007700040F4002008600846806B40F08050886399
:100780000846006A40F0805008620846C06B40F09E
:100790000050C8630846006A40F0005008620846EE
:1007A000806B40F0005088630846006A40F00050BB
:1007B00008620846C06B40F00050C8630846006AF3
:1007C00040F0005008620846806B40F0005088639B
:1007D0000846006A40F0005008620846C06B40F0CE
:1007E0000050C8630846006A40F00050086208469E
:1007F000806B40F0005088630846006A40F000506B
:1008000008627047008009200146302905DB39293C
:1008100003DCA1F13000C0B27047412905DB5A2941
:1008200003DCA1F13700C0B2F6E7202901D1242072
:10083000F2E7242901D12520EEE7252901D1262040
:10084000EAE72A2901D12720E6E72B2901D1282030
:10085000E2E72D2901D12920DEE72E2901D12A2026
:10086000DAE72F2901D12B20D6E72C20D4E770B569
:1008700004460D462946204604F044FC29462046FD
:1008800000F0A0FA2946204604F05CFC70BD000090
:1008900010B50446662C03D1244804F09BFA04E00A
:1008A000762C02D1214804F015FA214991F84E0026
:1008B00001F0D6F8C0BB1F4800681F4908601F48F8
:1008C000007840F080001D4908701D48406B10F40E
:1008D000007F22D01A48006E40F0010018490866D7
:1008E0000846C06F40F00100C8670846006E40F03F
:1008F000020008660846806F40F002008867C82042
:1009000003F00AFD0E48006E40F002000C49086634
:100910000846C06F40F00200C867A4F10C0203490A
:100920000C310848FFF7FAFB10BD0000141100203D
:1009300030140020080000101C00001000000010FF
:10094000008009207409002010B56420FFF7DEFD47
:100950000446E62C16D3B4F5D57F14D2424800786D
:1009600010F0200F08D1352007F0AAFD3E4800788E
:1009700040F020003C4908703B48007840F04000BF
:10098000394908706FE040F26E20844237D2B4F5E6
:10099000D57F34D93448007810F0200F02D13520AB
:1009A00007F08EFD3048007840F020002E49087096
:1009B0000846007810F0100055D00846007840F046
:1009C000040008700846007820F0900008700320AA
:1009D000264908702648006826490860642007F008
:1009E0006FFD2548006A40F48030234908620846BC
:1009F000C06B40F48030C86304F08CFC33E040F2FC
:100A0000333084422FD2B4F51C7F2CD316480078A3
:100A100010F0100F16D01448007840F00100124971
:100A200008700846007820F09000087003200F49F5
:100A300008700F4800680F490860642007F040FD07
:100A400004F068FC0C48006A40F480300A490862EF
:100A50000846C06B40F48030C8630348007820F03B
:100A600060000149087010BD000000100300001074
:100A70000800001018000010008009202DE9FF5F19
:100A8000054600200090019002900390002400266B
:100A9000BC48007800287DD10120BA4908700020A8
:100AA000B949087000900190029003906021B74806
:100AB000FFF75CFBFFF7B0FC10224FF4B95168461A
:100AC00002F0F0F9012241F20171AF4802F0EAF9B7
:100AD00060224FF4BA51AD4802F0E4F9FFF7A5FCEB
:100AE000A948007878B1A9480078002867D1A748BC
:100AF0004078002863D1A548807800285FD1A348BA
:100B0000C07800285BD10A2003F006FCFFF784FCC4
:100B1000102241F23071684602F0C4F9012241F21C
:100B20000271994802F0BEF960224FF4BD51974816
:100B300002F0B8F9FFF779FC9348007870B1934858
:100B4000007800283BD191484078002837D18F4861
:100B50008078002833D18D48C07800BB8C4800785D
:100B6000F0B18C480078D8B18B48007840B98A48F9
:100B7000407828B98848807810B98748C07878B11B
:100B8000864B0FCB8DE80F00814800787E490870B6
:100B9000602200E024E080497C48FFF7BFFA0EE0C5
:100BA00001207949087060217848FFF7DFFA0020BA
:100BB000764908704870172088703B20C8707248CA
:100BC00000787749087077489DE80E10A0E80E106D
:100BD00060226E497448FFF7A1FA0020734908703B
:100BE000734840787249897840EA0129664800785C
:100BF00000287DD00024B9E0012000EB8400634987
:100C0000085C11F8241040EA012A032000EB84005C
:100C10005E49085C022101EB84015C4A515C40EAB8
:100C2000012BDA454DDCD14573DBD94571DC601C05
:100C300000F0FF085D480078404513D15D4800682A
:100C4000854209D35B480088281A5B490988084413
:100C50005A4921F8140024E057480088574921F8E0
:100C600014001EE0534805600027002607E0A64256
:100C700003D0524830F816000744701C86B2424830
:100C800000788642F3DBBD4203D3E81B4A49088063
:100C900004E04A4830F8140047490880434880F887
:100CA0000080464810F81400454901F814004348F4
:100CB00030F81400000A012101EB4401404A50546D
:100CC00059E0DA4550DDD14501DAD9454CDC601CEC
:100CD00000F0FF0835480078404515D135480068D8
:100CE00085420BD333480088281A3349098800E02D
:100CF00042E00844314921F8140025E02E480088DC
:100D00002E4921F814001FE02A480560002700261C
:100D100008E029E0A64203D0284830F8160007442E
:100D2000701C86B2184800788642F3DBBD4203D3BC
:100D3000E81B2149088004E0204830F814001E49CF
:100D400008801A4880F800801C4810F814001C49DC
:100D500001F81400194830F81400000A012101EBD1
:100D60004401174A505406E0601C84B206480078DB
:100D70008442FFF641AF03E011490D70280A487024
:100D8000BDE8FF9FC9060010B10600101C680010E6
:100D9000CB060010B00600109C6D00108C6D00108A
:100DA000CA0600101C6D00102C6D0010B206001059
:100DB000A8060010B4060010B80600107C680010E9
:100DC000FC6D001070B58EB004460D4686200E49AD
:100DD00088710020088100F019F80B4801F0B2FF7B
:100DE000064606F10A0008494870A01C4880A81C65
:100DF000888001A801F0A9FD0646324601A900201D
:100E000007F0D2FC0EB070BD141000202548264912
:100E10000A68C2604968016124480078062813D234
:100E2000DFE800F003040A0E050600BF00BF00BFA4
:100E300002201C49C8820BE003201A49C88207E03F
:100E400004201849C88203E001201649C88200BF67
:100E500000BF1748007810F0600006D0202809D0A5
:100E6000402806D060280DD108E000200D494871C7
:100E700009E008E001200B49487104E0022009491B
:100E8000487100E000BF00BF0A48406D10F4007FC9
:100E900003D000200349087102E0012001490871D4
:100EA00070470000141200206E00002003000010A4
:100EB0000000001000800920F0B502460D46002613
:100EC00000212FE0505C682803D15018C0796828B1
:100ED00000D025E05018477A5018807A07EB0020A0
:100EE00084B240F2E710401AA04200DA1EE000236C
:100EF00005E05018C05C3044C6B2581C83B204F1FF
:100F00000B008342F5DB5018C05CB04200D00DE00E
:100F1000501818444078162800D007E00120F0BD92
:100F2000481C81B2A5F10D008842CBDC00BF002037
:100F3000F5E7000010B50020064908804880886069
:100F4000054908700548806D18B1B0210348FFF7C6
:100F50000DF910BD14120020C9060010A4120020C3
:100F60002DE9F04104460F46267A012E34D1364849
:100F7000364902683648FFF7D1F8E57C0A2D17D0CC
:100F800006DC012D0BD0022D0CD0082D1CD10CE05D
:100F90000B2D10D00D2D11D00E2D15D111E004F018
:100FA00041F812E004F034F80FE004F063F80CE0CC
:100FB00004F024F809E004F03FF806E004F050F8EB
:100FC00003E004F043F800E000BF00BF21480168DF
:100FD0001F4805F0CFFF35E0082E33D11A481B49D2
:100FE00002681B48FFF79AF8257C0A2D17D006DC0B
:100FF000012D0BD0022D0CD0082D1CD10CE00B2D97
:1010000010D00D2D11D00E2D15D111E004F016F9D0
:1010100012E004F0FFF80FE004F062F90CE004F0D5
:10102000E5F809E004F01EF906E004F045F903E0F4
:1010300004F02CF900E000BF00BF06480168044836
:1010400005F098FFBDE8F081D0060010802A00204E
:10105000742C0020D40600102DE9F041002000245B
:10106000002236E000212EE001264B1C20E002EB9E
:101070008217DFF830C467447F5C17F0110F01D18D
:10108000012700E0002702EB821CDFF81884C4442B
:101090001CF803C01CF0110F02D14FF0010C01E04D
:1010A0004FF0000C674501D1761C00E004E05B1CAA
:1010B000FD4F3F68BB42DADB00BF052E01DBB71EE8
:1010C0003844591E491CF84E3668361F8E42CBDC18
:1010D000521CF54E3668B242C4DB002236E00021D5
:1010E0002EE001264B1C20E001EB8117DFF8B4C392
:1010F0006744BF5C17F0110F01D1012700E0002702
:1011000003EB831CDFF89C83C4441CF802C01CF072
:10111000110F02D14FF0010C01E04FF0000C6745B8
:1011200001D1761C00E004E05B1CDF4F3F68BB424E
:10113000DADB00BF052E01DBB71E3844591E491CFF
:10114000D94E3668361F8E42CBDC521CD64E3668DE
:10115000B242C4DB00225AE0002152E002EB8216C8
:10116000D04F3E44765C16F0110F01D1012700E00C
:101170000027561C06EB8616DFF828C36644765C0B
:1011800016F0110F01D1012600E00026B74237D139
:1011900002EB8216C34F3E44765C16F0110F01D16C
:1011A000012700E0002702EB8216DFF8F8C2B44402
:1011B0004E1C1CF8066016F0110F01D1012600E04C
:1011C0000026B7421CD102EB8216B64F3E44765C35
:1011D00016F0110F01D1012700E00027561C06EB85
:1011E0008616DFF8C0C2B4444E1C1CF8066016F028
:1011F000110F01D1012600E00026B74200D1C01C2A
:10120000491CA94E3668761E8E42A7DC521CA64E9B
:101210003668761E96429FDC0022AFE00021A6E0F1
:1012200041B102EB82169F4F37444E1EBE5D16F051
:10123000110F7DD102EB82169A4F3E44765C16F078
:10124000110F75D002EB821637444E1CBE5D16F0AE
:10125000110F6DD102EB8216924F37448E1CBE5D8A
:1012600016F0110F64D002EB82168E4F3744CE1C5D
:10127000BE5D16F0110F79D002EB8216894F37440C
:101280000E1DBE5D16F0110F70D002EB8216854F59
:1012900037444E1DBE5D16F0110F67D102EB82166A
:1012A000804F37448E1DBE5D16F0110F5ED07E4E0E
:1012B0003668F61F8E4208D002EB8216794F37440B
:1012C000CE1DBE5D16F0110F50D1022908DB02EBD6
:1012D0008216744F37448E1EBE5D16F0110F15D165
:1012E000032908DB02EB82166E4F3744CE1EBE5D2B
:1012F00016F0110F0AD1042937DB02EB8216694F71
:1013000037440E1FBE5D16F0110F2ED0664E3668A4
:10131000083E8E4209DD02EB8216624F374401F12E
:101320000806BE5D16F0110F20D15F4E366800E052
:101330001CE0093E8E4209DD02EB8216594F37440C
:1013400001F10906BE5D16F0110F0FD1564E366839
:101350000A3E8E4209DD02EB8216524F374401F1FC
:101360000A06BE5D16F0110F00D12830491C4E4E02
:101370003668B61F8E423FF753AF521C4A4E36684E
:10138000B242FFF64BAF0022AEE00021A5E041B132
:101390004E1E06EB8616434F3E44B65C16F0110F08
:1013A0007ED101EB81163F4F3E44B65C16F0110F23
:1013B00076D04E1C06EB86163E44B65C16F0110F36
:1013C0006ED18E1C06EB86163E44B65C16F0110FED
:1013D00066D0CE1C06EB86163E44B65C16F0110FA6
:1013E0007AD00E1D06EB86163E44B65C16F0110F41
:1013F00072D04E1D06EB86163E44B65C16F0110FF9
:101400006AD18E1D06EB86163E44B65C16F0110FAF
:1014100062D0254E3668F61F8E4207D0CE1D06EBF1
:1014200086163E44B65C16F0110F55D1022908DB32
:101430008E1E06EB86161B4F3E44B65C16F0110F4F
:1014400015D1032908DBCE1E06EB8616154F3E4448
:10145000B65C16F0110F0AD104293CDB0E1F06EB17
:101460008616104F3E44B65C16F0110F33D00E4E68
:101470003668083E8E4209DD01F1080606EB861645
:10148000084F3E44B65C16F0110F25D1064E366863
:10149000093E8E4210DD01F1090606EB861605E0D5
:1014A0001AE000002C6E0010FC070010304F3E4484
:1014B000B65C16F0110F0FD12E4E36680A3E8E42E2
:1014C00009DD01F10A0606EB8616294F3E44B65C9B
:1014D00016F0110F00D12830491C264E3668B61F71
:1014E0008E423FF754AF521C224E3668B242FFF68E
:1014F0004CAF002210E0002109E002EB82161C4FE5
:101500003E44765C16F0110F00D1641C491C194E44
:101510003668B142F1DB521C164E3668B242EADB45
:1015200064266643134F3F687F4396FBF7F6C6F188
:101530003206002E09DD642666430E4F3F687F4366
:1015400096FBF7F6C6F1320509E064266643094FBB
:101550003F687F4396FBF7F6C6F1320675420526D3
:1015600095FBF6F606EB860600EB4600BDE8F0813B
:101570002C6E0010FC07001010B500220BE00021BB
:1015800005E0002300E05B1C052BFCDB491CB1F5EA
:10159000487FF6DB521C8242F1DB10BD00B591B0F2
:1015A0003D48007820F080003B49087008460078EC
:1015B00020F0080008700846007820F0100008703D
:1015C0000846007810F0040F64D10846007840F017
:1015D0000400087002F0F8FB304B022201210420C5
:1015E00005F004F9082209A92D4806F05AF800234D
:1015F000102209A901A806F093FA2A22042103A8BF
:10160000FEF7ADFD01AA0721202005F0D7F9254BF3
:1016100002220121062005F0E9F8234B01220C21CA
:10162000062005F0E3F8202109A8FEF79FFD202100
:1016300001A8FEF79BFD1D480822816801A807F05C
:10164000E3FB0623082201A909A806F069FA09AA02
:101650000721062005F05EF9154B02220121082022
:1016600005F0C4F8134B01220C21082005F0BEF848
:10167000114B022201210A2005F0B8F80D4B01227E
:101680000C210A2005F0B2F80C4B082204210C2092
:1016900005F0ACF811B000BD0100001012B600005A
:1016A00038140020F2B3000012B50000141200201C
:1016B00032B50000B2B5000072B5000052B60000AD
:1016C0007047000070B594B000240025834800786E
:1016D00010F0800F57D18148007840F080007F499A
:1016E000087002F071FB7E4B02220121042005F0FC
:1016F0007DF808220CA97B4805F0D3FF00231022B7
:101700000CA904A806F00CFA2A22042106A8FEF768
:1017100026FD04AA0721202005F050F9724B022271
:101720000121062005F062F870A20C21062005F0C8
:10173000F1F86F4B02220121082005F057F86DA245
:101740000C21082005F0E6F86B4B022201210A204B
:1017500005F04CF8694B01220C210A2005F046F8EF
:10176000674B022201210C2005F040F8644B012256
:1017700009210C2005F03AF8614B403301220C217D
:10178000084605F033F820210CA8FEF7EFFC2021D5
:1017900004A8FEF7EBFC002000900190029003905B
:1017A00058480088ADF80000022204A9684605F0F8
:1017B00078FF0323042204A90CA806F0B1F90CAAAF
:1017C0000921062005F0A6F820210CA8FEF7CEFC82
:1017D000202104A8FEF7CAFC00200090019002908E
:1017E000039048484088ADF80000022204A96846EA
:1017F00005F022FF0323042204A90CA806F090F9A7
:101800000CAA0921082005F085F820210CA8FEF774
:10181000ADFC202104A8FEF7A9FC3A480822816803
:1018200004A807F0F1FA0623082204A90CA806F080
:1018300077F90CAA07210A2005F06CF820210CA8E2
:10184000FEF794FC202104A8FEF790FC00200090F5
:101850000190029003902C4800682C490968401AB6
:101860003C21B0FBF1F0B0FBF1F201FB1206304677
:1018700006F0A0FA04462448006824490968401A82
:101880004FF46161B0FBF1F06421B0FBF1F201FBB8
:101890001206304606F08EFA05460CA9284607F0D7
:1018A00011FA002302220CA904A806F039F904AAAF
:1018B0000F21602005F082F80CA9204607F002FAFB
:1018C000002302220CA904A806F02AF904AA152173
:1018D000602005F073F814B070BD00000100001026
:1018E00012B6000038140020D2B4000056000000E8
:1018F00092B4000041000000F2B3000012B50000F5
:1019000032B4000014120020080000102000001063
:1019100010B5064B02220621084604F0C7FF044B0F
:10192000082201210A2004F0C1FF10BD52B70000B7
:1019300092A3000000BF4AE02548007810F0800F15
:1019400009D02348007820F08000214908702149FF
:10195000887C06F015F820480078062830D2DFE8A9
:1019600000F003151A22161700201C49087006F013
:101970003FF900201A4908701A4908706C211A486A
:10198000FEF7F4FB0120144908701CE01BE01AE08C
:1019900000F030F817E01348007810F0080F01D07D
:1019A000FFF790FE0FE0FFF7F9FD104800681049BF
:1019B0000968401A0A2802D900200749087002E085
:1019C000FFF77EFE00BF00BF282002F0A5FCB3E7B2
:1019D000040000106C000020030000102400001020
:1019E000000000100100001030140020080000105A
:1019F0001800001000B58BB01548007810F0100FDB
:101A000023D11348007840F010001149087002F00B
:101A1000DBF9104B02220121042004F0E7FE08222A
:101A200001A90D4805F03DFE0023102201A906A8DA
:101A300006F076F806AA0721202004F0BFFF074B26
:101A40000F2200210C2004F0D1FE0BB000BD0000DD
:101A50000100001012B600003814002002A000009F
:101A6000014607290DD2DFE801F004060708090A3C
:101A70000B000020704705E004E003E002E001E015
:101A800000E000BF00BF0120F4E700002DE9F14FA6
:101A90008CB001200B900A90EC2006904FF00008CB
:101AA000002600200990C2490860C24908600998D0
:101AB000002801DD099802E00C98FEF762FB08900F
:101AC000089818B900200DB0BDE8F08F089ADDE93C
:101AD0000B0101F0F5FD8246BAF1000F02D0BAF118
:101AE0000C0F01DD0020EEE70B9818B9B248C0F8E2
:101AF00000A00EE00B98824503DCAF490B9808600C
:101B000007E00A9818B1AC48C0F800A001E0002036
:101B1000D9E7A948006800EB800101EB4010A74914
:101B200001EB4000001DA249096830F81170A4487B
:101B30000068C0EBC700042801DD042003E0A048D2
:101B40000068C0EBC70007900798002807DD002158
:101B50009B48079A006803F0E3FF99490860984999
:101B60000968C81DC11700EB5171CC100AE09549F6
:101B7000069808550698EC2801D1112000E0EC20C9
:101B80000690641CBC42F2DB8B48006800EB8001CD
:101B900001EB4010894901EB400040888A49086008
:101BA000084601688948FEF7E1FA8348006800EBBF
:101BB000800101EB4010814901EB40001A307C4963
:101BC000096801EB410130F8110005907A4800687E
:101BD00000EB800101EB4010784901EB400032300E
:101BE0007349096801EB410130F811100491DDE9F6
:101BF000041000EB010B7048006800EB800101EB62
:101C000040106E4901EB40001A306949096801EB48
:101C1000410100EB4100B0F804906748006800EB18
:101C2000800101EB4010654901EB40003230604912
:101C3000096801EB410100EB41008088039000241A
:101C40000FE0002509E0404608F101085D49085C05
:101C50000BFB05615D4A50546D1C4D45F3DB761C52
:101C6000641C05988442ECDB00241CE0002515E090
:101C70004D4509DA404608F101085249085C0BFB62
:101C80000561524A505408E0404608F101084D49A8
:101C9000085C0BFB09414D4A50546D1C039885426A
:101CA000E6DB761C641C04988442DFDB4248006853
:101CB00000EB800101EB4010404901EB40001A307D
:101CC0003B49096801EB410100EB41004088A0EB72
:101CD000090002903848006800EB800101EB4010D9
:101CE000364901EB400032303149096801EB4101CE
:101CF00000EB410041880398081A01904FF000085A
:101D0000002600241FE099213148FEF72FFA2D48C4
:101D100000EB08014A462E48FEF700FA49462C48D7
:101D2000029A01F04DFD002507E02948405D0BFBBC
:101D300005713144254A50546D1C02988542F4DBEC
:101D4000C844761C641C05988442DCDB002420E037
:101D500099211F48FEF70AFA1A4800EB08011C48AF
:101D6000039AFEF7DBF91A48019A039901F028FD5E
:101D7000002507E01648405D0BFB05713144134A0E
:101D800050546D1C01988542F4DB03988044761C06
:101D9000641C04988442DBDB07480068112101EBD6
:101DA00080000C49086001F06BFA01208BE600000E
:101DB0000C080010180800101008001010B90000DE
:101DC00000080010AD7E00100808001051A100109E
:101DD000CBAF0010FC0700102DE9F74F86B0074687
:101DE00092460024A04640F68C31FE48FEF7BEF92C
:101DF00000200546FC4908603EE00798401EA842C6
:101E000007DD6A1CB95C785D01F0A5FF08B103230A
:101E10000CE0785D01F0B8FF08B1002306E0785DC2
:101E200001F076FF08B1012300E002230DB9EF486D
:101E30000370EE48EC490968405C984206D0EA48D5
:101E40000068401CE8490860E8490B54E548E64949
:101E50000968405C401CC1B2E248E34A1268815400
:101E6000032B08D1E0490968405C401CDD49DE4A8B
:101E7000126888546D1C6D1C07988542BDDBDA48DA
:101E80000068401CD849086061E100200190D748F3
:101E9000005D20B9D549601C085C012808D0D348F2
:101EA000005D01287ED1D149601C085C0028F9D171
:101EB000CC4A115DCD4A105D524601F0AFFB83461E
:101EC000C84B621C995CC94B985C524601F0A6FB5A
:101ED0000BEB00010591C348025D0346601C185CD2
:101EE00011185246012001F099FB81460599494598
:101EF00058DD012C28DB601EBC49085C022823D178
:101F0000601EB84A125CB748005D111852460220A4
:101F100001F084FB8346B34B621C995CB34B985C25
:101F2000524601F07BFB58440390601EAD4A115CA1
:101F30005246022001F072FB00EB09010398814236
:101F400004DA0020039001E000200390A648006816
:101F5000801EA0422ADDA549A01C085C022825D1CC
:101F6000A04A115DA14A105D524601F057FB83461D
:101F70009C4A601C125C9B4BA01C185C11185246BA
:101F8000022001F04BFB58440290964AA01C115CC1
:101F90005246022001F042FB00EB09010298814207
:101FA00006DA00E0D1E00020029001E0002002907B
:101FB000039858B1029848B1DDE90210884202DA6C
:101FC0004FF0FF3000E0012001900AE0039810B1CB
:101FD0004FF0FF3004E0029808B1012000E000203B
:101FE00001900198F0B30198401C1AD1601E7D4900
:101FF000085C095D0844C1B2601E7A4A1154254646
:1020000009E07A49681C085C48557649681C095CF7
:10201000744841556D1C74480068401EA842F0DCAD
:102020001CE00221714A601C11546E49095C6D4A22
:10203000A01C105C0844C1B2601C1154A51C08E02F
:102040006A49681C085C48556649681C085C485524
:102050006D1C65480068401EA842F1DC62480068BB
:10206000401E00E002E0604908606DE05E480068E4
:10207000801EA04223DD5D49A01C085C01281ED102
:102080005849601C095C574AA01C105C0844C1B246
:10209000601C1154A51C08E05449681C085C485594
:1020A0005049681C085C48556D1C4F480068401E2C
:1020B000A842F1DC4C480068401E4B4908600121F1
:1020C0004A4801554748015D0246601C105C0844BF
:1020D00011460855651C08E04449681C085C4855D1
:1020E0004049681C085C48556D1C3F480068401E0C
:1020F000A842F1DC3C480068401E3B490860012CC6
:1021000022DB601E3949085C01281DD1601E35495B
:10211000085C095D0844C1B2601E324A115425466C
:1021200008E03249681C085C48552E49681C085C68
:1021300048556D1C2C480068401EA842F1DC2A4816
:102140000068401E2849086001E0641C00BF264862
:102150000068401EA0423FF798AE0024BBE0214A31
:10216000115D224A105D524601F058FA83461D4B1C
:10217000621C995C1D4B985C524601F04FFA584422
:1021800005901848025D0346601C185C1118524601
:10219000022001F043FA8146012C0ADB601E13493C
:1021A000085C022805D1124810F80A00001DA9EBAE
:1021B00000090D480068801EA0420ADD0B49A01CE2
:1021C000085C022805D10A4810F80A00001DA9EB96
:1021D0000009059848457CDD012C2CDB601E034975
:1021E000085C07E0C595001004080010398A00104B
:1021F0009CCB000002281ED1601EDC49085C095DF2
:102200000844C1B2601ED94A1154254608E0D84995
:10221000681C085C4855D549681C085C48556D1C0D
:10222000D4480068401EA842F1DCD2480068401E35
:10223000D0490860641ECF480068801EA04223DD9C
:10224000CB49A01C085C02281ED1C849601C095C4F
:10225000C64AA01C105C0844C1B2601C1154A51CE5
:1022600008E0C349681C085C4855C049681C085C04
:1022700048556D1CBF480068401EA842F1DCBD48AF
:102280000068401EBB4908600220B9490855B7489C
:10229000015D0246601C105C084411460855651C2F
:1022A00008E0B349681C085C4855B049681C085CE4
:1022B00048556D1CAF480068401EA842F1DCAD488F
:1022C0000068401EAB490860012C00DB641E02E080
:1022D000FFE7641C00BFA7480068401EA0423FF70C
:1022E0003EAF0020A449086040F68C31A348FDF7BA
:1022F0003DFF002527E19E48405DC0BB042201212F
:102300009D48006803F00CFC9B4908609C4810F84D
:102310000A209648415D9848006803F001FC964900
:102320000860002653E09148405D801EB0421FDDEA
:1023300008EB0600385C30386421484308EB06019E
:10234000491C795C303901EB810100EB410108EB5C
:102350000600801C385C3038084404900A22864805
:102360000499006803F0DCFB834908602EE036E046
:102370007E48405D801EB04216D108EB0600401C2E
:10238000385C303808EB0601795C303901EB8101AB
:1023900000EB41000490072277480499006803F09D
:1023A000BFFB7549086011E07048405D401EB042B7
:1023B0000CD108EB0600385C3038049004226E48DB
:1023C0000499006803F0ACFB6B490860F61C674891
:1023D000405DB042A7DC6548405D8044B2E064489F
:1023E000405D01284AD1042202216348006803F0BD
:1023F00097FB61490860634810F80A205B48415D1B
:102400005D48006803F08CFB5B49086000262DE006
:102410005648405D401EB04219DD08EB0601785C6D
:10242000FEF7F2F9C0EB001000EB400208EB0601EA
:10243000491C785CFEF7E8F9104404900B224E48E2
:102440000499006803F06CFB4B4908600DE008EB51
:102450000601785CFEF7D8F90490062246480499F4
:10246000006803F05DFB44490860B61C3F48405DCE
:10247000B042CDDC3D48405D804463E03C48405D77
:10248000022827D1042211463B48006803F048FB8C
:10249000394908603C4810F80A203448415D364804
:1024A000006803F03DFB3449086000260AE008EBB1
:1024B0000600395C08223048006803F031FB2E49E1
:1024C0000860761C2948405DB042F0DC2748405D3A
:1024D000804437E0042208212748006803F020FBED
:1024E00025490860214810F805B0284810F80A204E
:1024F0000BEBDB7041102048006803F011FB1E4914
:102500000860002614E008EB4601491C795C08EBE2
:102510004602BA5C01EB022001F03FFC83460D222B
:1025200059461548006803F0FBFA13490860761C09
:102530000E49485D00EBD071B6EB610FE3DB0B4851
:10254000405D80446D1C0B480068854204DA0A48EF
:102550000068401C7FF4CFAE07480068401C03D0E1
:10256000012009B0BDE8F08F0020FAE7C595001002
:10257000398A00100408001000080010AD7E001019
:1025800096CB000099CB00009CCB00009FCB0000B5
:1025900010B50548807C012804D10020034908704B
:1025A00005F06EFC10BD00006C0000205000002003
:1025B00070B50446002005F0C0FB064614F0020F7B
:1025C00003D002206E49087070BD172E7ED114F022
:1025D000040F15D0002005F07EFB0546B5F5806F91
:1025E00008DA2A466749002006F008F829466548B7
:1025F00002F0BAFA24F00401002005F05BFF00BFEE
:102600006148007810F0800F21D15F48007810F009
:10261000080F0BD05C48007810F0080F17D05B480B
:1026200000685B490968401A0A2810D9594803F024
:102630009DF910B90220524908705348007840F0C3
:1026400008005149087051480068514908604E48D7
:102650000078E0287DDB4D4800684F4909688842D2
:102660001DD04A4800681E21B0FBF1F201FB1200A8
:1026700020B14A48007810F0200F10D003F066F91E
:102680004648007820F02000444908700846007849
:1026900040F0020008703D4800683F4908603F482C
:1026A000007810F0020F0CD0384800683A490968E9
:1026B000401A142805D33948007840F020003749E3
:1026C0000870324800683649096800E052E08842E4
:1026D0001BD02E4800687821B0FBF1F201FB1200FC
:1026E00020B12E48007810F0100F0ED02B48007843
:1026F00020F01000294908700846007840F00100D9
:10270000087022480068264908602448007810F0C4
:10271000010F0CD01D48006821490968401A14288F
:1027200005D31E48007840F010001C4908701D4871
:10273000007810F0020F09D11A48007810F0040F49
:1027400004D11848007810F0010F16D01548007811
:1027500000E012E020F007001249087008460078F7
:1027600040F008000870104803F084F90E4803F0A8
:102770000EF902E002200249087000BF24E70000C1
:10278000020000107401002050000020080000101A
:102790000C0000106E00002010000010040000105B
:1027A0001400001000000010141000201CB51420AC
:1027B00001F0B2FD1A4806F090F8684605F02EFACE
:1027C00017480A3006F0EAF815480E3006F0B8F857
:1027D0001348001D06F0CFF8684605F069FA552148
:1027E000084606F0A9F94DF2070006F09EF803200E
:1027F00006F094F8CF2006F083F80A2001F08CFD53
:1028000007486A38B0F8722020230121002006F022
:10281000FDF80349891F002006F0D0F81CBD000018
:10282000D600002070B50446002005F086FA054663
:1028300014F0010F19D0172D13D10320234908706C
:10284000002023490870234908702348007800F0CD
:1028500080002149087024F00101002005F02AFEC3
:1028600002E002201949087070BD14F0080F10D062
:1028700017480078401C164908700846007802285E
:1028800002D105201149087024F00801002005F04C
:1028900011FE14F0020F04D024F00201002005F014
:1028A00009FE15B11C2D0DD108E00C48B0F86820C8
:1028B00000F16401002004F06DFF03E0002004F04B
:1028C00049FF00BF00BF00BFCEE7000002000010BC
:1028D0004F00002050000020040000106C00002079
:1028E00010B5002002F08CF840F2DE700C49C88070
:1028F000062048710520C870042008710C208870DB
:1029000048700870084602F08DF84021812002F0DE
:102910001BF9912001F0A6FF012002F071F810BD13
:10292000A006001010B50446002002F069F8204609
:1029300002F078F84021812002F006F9912001F0A0
:1029400091FF012002F05CF810BD2DE9F041064630
:102950000D463446682004F8010B687804F8010B32
:102960006888C11700EB11610912A0EB012104F87E
:10297000011B6888C11700EB1161090A04F8011BEB
:10298000A888C11700EB11610912A0EB012104F81E
:10299000011BA888C11700EB1161090A04F8011B8B
:1029A000A87904F8010BE87904F8010B2889C1170C
:1029B00000EB11610912A0EB012104F8011B288929
:1029C000C11700EB1161090A04F8011B6889C117DE
:1029D00000EB11610912A0EB012104F8011B6889C9
:1029E000C11700EB1161090A04F8011B68780A2875
:1029F0000ADD6878A0F10A0205F10C012046FDF716
:102A00008DFB68780A3804446878801CC7B2384661
:102A1000BDE8F08170B50546002401222146641C02
:102A200005F10C0042540146081910221049FDF727
:102A300075FB103405F10C01081910220D49FDF742
:102A40006DFB10340B48103890F820202146641C90
:102A500005F10C0042540146081990220549113134
:102A6000FDF75CFB04F19000C4B2204670BD00008D
:102A70008C1400202415002070B503460C4619461E
:102A8000682001F8010B012001F8010B022001F878
:102A9000010B206808606068486008310020086009
:102AA000486008311046D61702EB16663612A2EBC4
:102AB000062601F8016BD61702EB1666360A01F8F6
:102AC000016B044800680860091DC81AC5B2284691
:102AD00070BD0000B08F000070B505460024964818
:102AE000007810F0040F07D002222046611CCCB2FF
:102AF00005F10C010A5420E08F48007810F0010F16
:102B000007D001222046611CCCB205F10C010A5409
:102B100013E08948007810F0020F07D00322204606
:102B2000611CCCB205F10C010A5406E004222046D7
:102B3000611CCCB205F10C010A5405F10C01081915
:102B400010227E49FDF7EAFA04F11000C4B205F143
:102B50000C0020447A49098A0180A01CC4B205F106
:102B60000C002044764912310A68026049684160CD
:102B700004F10800C4B205F10C00204470491A3178
:102B80000A6802604968416004F10800C4B205F1B6
:102B90000C00204469495C398A680260C968416058
:102BA00004F10800C4B205F10C01081910226449AF
:102BB0002A31FDF7B3FA04F11000C4B205F10C009C
:102BC00020445F493A310A6802608A8882808979A4
:102BD0008171E01DC4B205F10C0020445849413117
:102BE0000A6802608A88828089798171E01DC4B296
:102BF00005F10C0020445249896C0160201DC4B2CB
:102C000005F10C0020444E49C96C0160201DC4B27E
:102C100005F10C0020444A49096D0160201DC4B231
:102C200005F10C0020444649496D0160201DC4B2E5
:102C300005F10C0020444249896D0160201DC4B299
:102C400005F10C0020443E49C96D0160201DC4B24D
:102C500005F10C0020443A49096E0160201DC4B200
:102C600005F10C0020443649496E0160201DC4B2B4
:102C700005F10C0020443249896E0160201DC4B268
:102C800005F10C0020442E49C96E0160201DC4B21C
:102C900005F10C0020442A49096F0160201DC4B2CF
:102CA00005F10C0020442649496F0160201DC4B283
:102CB00005F10C0020442249896F0160201DC4B237
:102CC00005F10C0020441E49B1F87C100180A01CC5
:102CD000C4B205F10C0001191948D0F88000086051
:102CE000201DC4B205F10C0001191548D0F884006C
:102CF0000860201DC4B205F10C0001191048803095
:102D000082680A60007B0871601DC4B205F10C0086
:102D100001190B48B0F88E000880A01CC4B205F160
:102D20000C010819202206499031FDF7F7F904F14A
:102D30002000C4B2204670BD000000108C1400209A
:102D4000A412002070B50546002401222146641C0F
:102D500005F10C0042543549088804F082FD06460E
:102D60002146641C05F10C004654320A2146641CBD
:102D700042542E49488804F074FD06462146641CDE
:102D800005F10C004654320A2146641C425427487F
:102D900002792146641C05F10C0042542348427913
:102DA0002146641C05F10C00425420441F498968E7
:102DB0000160201DC4B205F10C0020441B49CA6803
:102DC00002600969416004F10800C4B21748027D3D
:102DD0002046611CCCB205F10C010A541349C88A83
:102DE000C11700EB11610912A0EB0121CBB2214602
:102DF000621CD4B205F10C0253540C49C88AC117A5
:102E000000EB1161C1F307232146621CD4B205F126
:102E10000C0253541146081910220549FDF77EF99A
:102E200004F11000C4B2204670BD0000141200204E
:102E30008C14002002E011498968C8B20F49C968A2
:102E400001F004010429F6D000BF0C49C96811F053
:102E5000010FFAD0FF21094A916000BF0749C968F4
:102E600001F010011029F9D000BF0449C96811F020
:102E7000040FFAD001498968C8B270470080084041
:102E800000BF0749C96811F0010FFAD004498860F2
:102E900000BF0349C96801F010011029F9D070473B
:102EA000008008402DE9F04104460D4616461848BA
:102EB000006A40F40010164908620846C06B40F4EE
:102EC0000010C863052004F0E5FC0320FFF7D8FFDD
:102ED000280AFFF7D5FFE8B2FFF7D2FF002705E089
:102EE000FFF7A8FF2070641C781C87B2B742F7DB9D
:102EF0000748006A40F40010054908620846806BE4
:102F000040F400108863052004F0C4FCBDE8F081A3
:102F1000008009202DE9F04104460D46174600F0D7
:102F20000DFA804618F0710F56D12C48006A40F413
:102F300000102A4908620846C06B40F40010C863BC
:102F4000052004F0A7FC0620FFF79AFF2348006A3B
:102F500040F40010214908620846806B40F40010DC
:102F60008863052004F096FC02E0142001F0D4F9F7
:102F700000F0E4F910F0020FF7D01848006A40F4AE
:102F80000010164908620846C06B40F40010C86380
:102F9000052004F07FFC0220FFF772FF280AFFF7EC
:102FA0006FFFE8B2FFF76CFF002605E02078FFF71F
:102FB00067FF641C701C86B2BE42F7DB0748006ADC
:102FC00040F40010054908620846806B40F4001088
:102FD0008863052004F05EFCBDE8F08100800920D4
:102FE00010B5FDF719FA3348006C20F0FF003149A5
:102FF00008640A20FDF77DF92E48806B40F400201C
:103000002C4988630846006A40F4002008620A20C0
:10301000FDF76FF92748C06B40F000702549C86381
:103020000846006A40F0007008620A20FDF761F966
:103030002048806B40F080601E4988630846006A23
:1030400040F0806008620A20FDF753F91948C06B10
:1030500040F480201749C8630846006A40F4802085
:1030600008620A20FDF745F91248406DC4B20A20F3
:10307000FDF73FF90F48806B40F480200D498863CD
:103080000846006A40F4802008620A20FDF731F902
:103090000848806B40F00070064988630846006A63
:1030A00040F0007008620A20FDF723F9FDF7BDF932
:1030B000204610BD0080092010B50446FDF7ACF98C
:1030C0003548006C40F0FF00334908640A20FDF7E2
:1030D00010F93148806B40F480202F4988630846FE
:1030E000006A40F4802008620A20FDF702F92A48AD
:1030F000C06B40F000702849C8630846006A40F081
:10310000007008620A20FDF7F4F82348806B40F055
:103110008060214988630846006A40F08060086248
:103120000A20FDF7E6F81C48C06B40F400201A495D
:10313000C8630846006A40F4002008620A20FDF7D0
:10314000D8F8204605F02EFF0A20FDF7D2F81248E5
:10315000806B40F40020104988630846006A40F400
:10316000002008620A20FDF7C4F80B48806B40F08D
:103170000070094988630846006A40F000700862E0
:103180000A20FDF7B6F80448006C20F0FF00024961
:103190000864FDF74AF910BD0080092010B5044607
:1031A000FDF73AF93548006C40F0FF0033490864F8
:1031B0000A20FDF79EF83148806B40F480202F49AB
:1031C00088630846006A40F4802008620A20FDF700
:1031D00090F82A48C06B40F000702849C863084640
:1031E000006A40F0007008620A20FDF782F8234868
:1031F000C06B40F080602149C8630846006A40F017
:10320000806008620A20FDF774F81C48C06B40F427
:1032100000201A49C8630846006A40F4002008628A
:103220000A20FDF766F8204605F0BCFE0A20FDF7EF
:1032300060F81248806B40F400201049886308460B
:10324000006A40F4002008620A20FDF752F80B489B
:10325000806B40F00070094988630846006A40F0BE
:10326000007008620A20FDF744F80448006C20F062
:10327000FF0002490864FDF7D8F810BD008009205E
:103280002DE9F04141F281012948FCF76FFF02F07E
:1032900093FD02F07FFC27480068401C1FD12549A0
:1032A00008600846006802F06DFE2248006802F0DF
:1032B000E5FCFDF7D1FE074601240EE0204602F0B2
:1032C00061FE204602F0DAFCFDF7C6FE0646BE426D
:1032D00002DA374617480460641C072CEEDD1548F7
:1032E000006802F04FFE1348006802F0C7FC00249B
:1032F00017E0002510E004EB84100D490844405D00
:1033000010F0110F01D0012000E0002004EB841127
:10331000074A114448556D1C074800688542EADB9E
:10332000641C054800688442E3DBBDE8F0810000CE
:103330002C6E001018080010FC07001010B5124881
:10334000006A40F40010104908620846C06B40F45F
:103350000010C863052004F09DFA0520FFF790FDDA
:10336000FFF768FDC4B20848006A40F4001006493F
:1033700008620846806B40F400108863052004F062
:1033800089FA204610BD0000008009202DE9F04197
:1033900003468C46174600218DE0BC2902DDC8207B
:1033A000BDE8F081585C68287AD1C81D185C68288F
:1033B00000D07EE001F10800185C00F0800404B940
:1033C00077E001F10800185C00F0400404B170E0FF
:1033D00001F10800185C00F00F04012C01D0022C50
:1033E00046D101F10900185C042800DC61E001F11C
:1033F0000900185C0A30C4B20025002205E08818D4
:10340000185C2844C5B2501C82B2A242F7DB0819EE
:10341000185CA84200D04CE00819401C185C162823
:1034200000D046E001F109001C5C00220DE001F132
:103430000A001044185C333800F0FF0801F10A005C
:10344000104403F80080501C82B2A242EFDB002639
:10345000042208E0360258180A30104410F8010C13
:103460000644501E82B2002AF4DCBE421FD020E087
:10347000042C1CD101F10900185C00B119E00A24E8
:103480000025002205E08818185C2844C5B2501CAD
:1034900082B2A242F7DB0819185CA84201D008E00A
:1034A00006E00819401C185C162800D001E005E071
:1034B00000BF481C81B2C829FFF66FAF00BF0846A5
:1034C0006EE72DE9F043844688461546DDE9074658
:1034D0003146FE2001F8010B01F8010B01F8010B48
:1034E00001F8010B682001F8010BDCF8000008600E
:1034F000BCF804008880891D682001F8010B01F8E0
:10350000018B01F8014B042C1EDB05F1330001F89F
:10351000010BC5F30720333001F8010BC5F3074059
:10352000333001F8010B332000EB156001F8010B7B
:10353000002206E013F8010B333001F8010B501C98
:10354000C2B2201F9042F5DC0027042204E0B05CE8
:103550003844C7B2501CC2B204F10E008242F6DBFE
:1035600001F8017B162001F8010B04F11000C0B234
:10357000BDE8F08370B506460C46304600F004F80E
:10358000054605B1EC6170BD01460020052912D247
:10359000DFE801F00305080B0E0008480CE00748BF
:1035A000203009E00548403006E00448603003E080
:1035B0000248803000E000BF00BF70470080092053
:1035C00070B505460E46144624B931462846FFF725
:1035D000D1FF03E03146284600F015F870BD2DE913
:1035E000F04107460D4616463846FFF7CDFF044624
:1035F0003CB11EB120682843206002E02068A84347
:103600002060BDE8F08170B506460C463046FFF7F5
:10361000BBFF054605B1AC6170BD0000F0B50446C6
:10362000002324B1012C1CD0022C37D12FE0032021
:1036300091FBF0F51E48805C001D0A2606FB050381
:10364000032091FBF0F500FB1510012802D00228A1
:1036500004D101E01B1D02E0DB1D00E000BF00BF44
:1036600023E0084601EBD0767710124EB65C361D8B
:103670004FF00B0C0CFB07660D4601EBD5777F1066
:10368000A1EB47074FF0060C0CFB07630DE00A485F
:10369000805C001D082505FB010306E00748805CEF
:1036A000001D0D2505FB010300BF00BF1846F0BD3E
:1036B00096CB000099CB00009CCB00009FCB000074
:1036C0002DE9F04706460F4690461B2E01DB0220EF
:1036D00004E00A2E01DB012000E0002081464D4677
:1036E00063E02A4641463846FEF776FB00285BD069
:1036F000EDB9012418E02F490968C81D04EB8401C5
:1037000001EB44112C4A02EB4101091D2B4A1268BE
:1037100031F81210C21700EB5272B1EBE20F02DB6C
:103720002046BDE8F087641C092CE4DD3CE0012D57
:103730001CD10A2417E01F490968C81D04EB840145
:1037400001EB44111C4A02EB4101091D1B4A12689E
:1037500031F81210C21700EB5272B1EBE20F01DB2D
:103760002046DEE7641C1A2CE5DD1DE0022D1BD18E
:103770001B2417E00F490968C81D04EB840101EB05
:1037800044110D4A02EB4101091D0C4A126831F83F
:103790001210C21700EB5272B1EBE20F01DB2046B0
:1037A000BFE7641C282CE5DD6D1C022D99DD00208F
:1037B000B7E700000008001010B900000C08001066
:1037C0002DE9F0410346002434E01D783DB31E7816
:1037D0001A4FBD5D002015E0194F57F822703F5C6D
:1037E0002F444FF0FF0C97FBFCF80CFB1877FEB250
:1037F000471CDF5DDFF84CC01CF806C087EA0C07E9
:103800001F54401C9042E7DB104603E0461C9E5DBF
:103810001E54401C8E18761E8642F7DC09E00020FC
:1038200003E0451C5D5D1D54401C8D186D1E8542D6
:10383000F7DC641C8C42C8DBBDE8F081EAC50000FF
:10384000DC060010EAC40000704700007E484068B3
:1038500000F0F80010F0070F79D1C0100C2876D2D4
:10386000DFE800F0EE061920B421B5B6A5B7BEDB3F
:1038700076480078012806D17548007800F0FE00EF
:103880007149886003E0724800786F498860282099
:103890006D498861D5E06E4800786B4988602820C2
:1038A0008861CEE000BF69480078E8B969480068DF
:1038B00090B169480068007863498860664800688C
:1038C000401C6549086028205F498861614800689C
:1038D000401E6049086007E010205B49086028200E
:1038E000886101205D4908705848007801282FD16F
:1038F0005B48007802280DD15A480068C0F30720C1
:10390000514988602820886155480078401E5449F4
:10391000087096E05248007801280CD151480068A0
:10392000C0B249498860282088614D480078401E0F
:103930004B49087085E04A48007848B90820424958
:1039400088612020086000204049087079E077E015
:103950003E480078022829D141480078002825DD1A
:103960003F48007802280DD13E480068C0F3072088
:10397000354988602820886139480078401E3849D8
:1039800008705EE03648007801280FD1354800689D
:10399000C0B22D4988602820886131480078401ED7
:1039A0002F4908700020294908704AE049E0294859
:1039B0000068012803D804202349886102E004201C
:1039C000214908602820204988613AE000BF00BFF3
:1039D00000BF28201C498861FF202049087030E082
:1039E000194880681C49096808701B480068401C19
:1039F0001949086017480068401E164908600846C3
:103A00000068012803D12C200F49886104E00420BC
:103A10000D4908602820886113E00B4880680E4932
:103A2000096808700C480068401C0B4908601020A9
:103A3000054908602820886101200849087000E0D5
:103A400000BF00BF7047000000C005401D000020FF
:103A50000800002018000020140000201C00002096
:103A6000100000200C000020F0B505460E4614465C
:103A7000059F002F35D0012E07D1681C1A49087008
:103A80001A48046001201A490870022E07D1681CE8
:103A90001549087015480460022015490870032E66
:103AA0000CD10E2000EAD4102844401C0E490870A6
:103AB000E0B20E49086001200D4908700D4803600E
:103AC0000D48076001200D49087000200C4908705E
:103AD0002C200C49886160200860142003F0ACFBA6
:103AE000F0BD0020FCE70000080000200C000020D2
:103AF0001000002014000020180000201D000020ED
:103B00001C00002000C00540F0B505460E461446D6
:103B1000059F002F32D0012E06D119480570194893
:103B20000460012018490870022E06D1144805705F
:103B300014480460022014490870032E0BD10E2093
:103B400000EAD41028440E490870E0B20D4908601C
:103B500001200D4908700D4803600D4807600220E0
:103B60000C49087000200C4908702C200B49886112
:103B700060200860142003F05FFBF0BD0020FCE72C
:103B8000080000200C00002010000020140000207D
:103B9000180000201D0000201C00002000C005406F
:103BA00010B588B0044607A80390002220211046D3
:103BB000FFF706FD002240211046FFF701FD0F210F
:103BC0000E4801F03DFE210A0C4801F039FEE1B239
:103BD0000A4801F035FE094801F014FEC0B2079012
:103BE000012220210020FFF7EBFC012240210020D0
:103BF000FFF7E6FC9DF81C0008B010BD0000034074
:103C000070B504460D46002220211046FFF7D8FC6F
:103C1000002240211046FFF7D3FCF0210D4801F0AF
:103C20000FFE210A0B4801F00BFEE1B2094801F03A
:103C300007FE2946074801F003FE0122202100204B
:103C4000FFF7BEFC012240210020FFF7B9FC012054
:103C500070BD00000000034010B51520FFF7A0FF65
:103C6000044600BFF0211520FFF7CAFF14F0010F32
:103C70000ED040F20240FFF793FF24490978084331
:103C8000224908700846017840F20240FFF7B8FF69
:103C900014F0020F0ED040F20250FFF781FF1B49D3
:103CA00049780843194948700846417840F2025063
:103CB000FFF7A6FF14F0040F0ED040F20260FFF7EA
:103CC0006FFF124989780843104988700846817847
:103CD00040F20260FFF794FF14F0080F0ED040F29C
:103CE0000270FFF75DFF0949C97808430749C870AA
:103CF0000846C17840F20270FFF782FF1520FFF7F7
:103D00004FFF0446002CADD110BD0000640600102A
:103D10000146302903DB392901DC012070474129A4
:103D200003DB5A2901DC0120F8E720290FD02429E0
:103D30000DD025290BD02A2909D02B2907D02D29D0
:103D400005D02E2903D02F2901D03A2901D10120F5
:103D5000E4E70020E2E70246812A01DB9F2A03DD37
:103D6000E02A0FDBEB2A0DDC40290BDB9F2A01D177
:103D7000FC2903DCEB2A03D1BF2901DD00207047B9
:103D80000120FCE70020FAE70146302903DB39294E
:103D900001DC012070470020FCE7014648F240109A
:103DA000814207D349F6FC70814203D8A1F5014155
:103DB000403902E0A1F541414039C8B20A0A02EB9C
:103DC000420200EB8210704770B5162415E0201DEA
:103DD000C1B2002002F065FFB02002F07BFF002599
:103DE00004E0FF2002F038FC681CC5B21E2DF8DB91
:103DF000B22002F06FFF601CC4B26F2CE7DB70BD15
:103E000010B500205AE030B9012200EB00132D4C10
:103E100004F8232005E0002200EB0013294C04F8ED
:103E2000232000EB0012274B03EB820200EB400340
:103E3000254C04EB43031C6842F8014F9B88938098
:103E4000002138E000EB4002204B03EB820252F8E5
:103E5000213000EB00121B4C04EB8202083201EB14
:103E6000810442F82430042300EB0012154C04EBCB
:103E70008202083201EB810402EB840213710023F9
:103E800000EB00120F4C04EB8202083201EB8104BC
:103E900002EB8402537100EB00120A4B03EB820227
:103EA000083201EB810302EB8302002342F8063F54
:103EB00053609360491C0329C4D3401C0228A2D339
:103EC00010BD0000946C0010ECB80000F8B80000C1
:103ED00000BF71E03948406B10F4003F01D1FFF79B
:103EE000BBFE002003F0DEFE0446354800780628BD
:103EF0003BD2DFE800F00309181C202DFEF748FB39
:103F000001202F49087034E0FEF750FC2D48B0F82E
:103F1000682000F16401002003F03CFC10B1022095
:103F20002749087025E02046FEF77CFC21E020466A
:103F3000FEF73EFB1DE02348B0F8682000F1640165
:103F4000002003F027FC10B102201D49087010E08A
:103F50001C48B0F8682000F16401002003F01AFC4E
:103F600010B102201649087003E0012014490870BE
:103F700000BF00BF12480078032819D0124800780B
:103F800010F0020F09D11048007810F0040F04D18E
:103F90000D48007810F0010F0AD00B48007800F0AF
:103FA000F000094908700846007840F008000870E1
:103FB000142000F0B1F900BF8CE700000080092058
:103FC000020000106C0000200000001010B500F08E
:103FD00015F800F051FA00F079FA00F09BFA00F0C1
:103FE00031FA00F015FA00F0F5FA00F015FB00F0D8
:103FF000B9FA00F0D3FA00F002F810BD704770472C
:1040000010B51E480078012837D1FCF705FA1C4886
:104010000078002804DD1A480078401E184908700E
:104020001748007838BB1748007820BB1648174956
:104030000978405C1649087016480978405C1249B6
:10404000085C1349097800EBC10013490870084661
:1040500000781249097888420DD011480E49097834
:1040600050F821000F4908600F480068401C0E49B5
:104070000860FCF7FFF9FCF7D8F910BD4F000010FD
:104080004100001043000010EAB700004600001095
:1040900042000010470000104500001044000010CE
:1040A000BC220020600000102800001070B51048ED
:1040B0000078E0B90F4810490978445C0F48005D6A
:1040C0000C490D5C05EBC4000D49087008460078EA
:1040D0000C4908700C480A49097850F821000B492E
:1040E0000860084600680A490860FCF7ABF970BD33
:1040F0004F000010EAB70000460000104700001013
:104100004500001044000010BC2200206000001098
:1041100058000010704700002DE9FE4306460F4688
:1041200090461C463F2C02DD2A20BDE8FE83FCF7AA
:1041300073F91E4850F8240090BB01201B4941F838
:104140002400FCF772F9002342463946304600F05D
:1041500094F88146002000900190034602464946AB
:104160000290204600F0B0FA05467DB9FCF754F9FC
:104170000F480078401C0E490870FCF756F90D48AE
:10418000007801280AD100F05FFA07E0FCF744F953
:104190000020064941F82400FCF747F92846C4E707
:1041A000FFE7FCF742F92820BFE70000BC2200200F
:1041B000500000104F0000102DE9FF5F81468A4635
:1041C00093461C46DDE90F78129D3F2C03DD2A2023
:1041D00004B0BDE8F09FFCF71FF9234850F8240015
:1041E00000283DD10120204941F82400FCF71DF9A9
:1041F00015F0010F02D115F0020F04D04FEA88012B
:104200003846FBF7B3FF2B465A465146484600F066
:1042100034F803901198CDE9008002953A46204683
:104220000E9B039900F050FA06467EB9FCF7F4F8AD
:104230000E480078401C0D490870FCF7F6F80C4851
:10424000007801280AD100F0FFF907E0FCF7E4F854
:104250000020054941F82400FCF7E7F83046B7E7AD
:10426000FCF7E3F82820B3E7BC2200205000001040
:104270004F00001070477047704770B504461046F5
:104280004FF080750560051F28462C606FF0010611
:10429000051F28462E604FF01236051F28462E6057
:1042A0004FF00336051F28462E604FF00236051FDB
:1042B00028462E607610051F28462E60051F2846CA
:1042C00029604FF01136051F28462E604FF010363A
:1042D000051F28462E604FF00936051F28462E6020
:1042E0004FF00836051F28462E604FF00736051F91
:1042F00028462E604FF00636051F28462E604FF0E8
:104300000536051F28462E604FF00436051F284647
:104310002E6070BD7047000010B50446002C23DDF0
:10432000FCF77AF81148006890F82F001049085CF3
:104330000E49096891F8301088430C49096891F8D2
:104340002F100B4A505408D10848006890F83110DB
:104350000848007888430749087004480068448585
:10436000FCF763F800F070F910BD00005800001071
:10437000470000104600001010B500F047F8FCF7A9
:104380004BF81D480068401C1B490860FCF74DF8BD
:104390001A48007801282ED11948046827E0FCF754
:1043A0003BF8608D00B3608D401E0004000C6085FA
:1043B0001AD194F82C0010F0080F13D104F12F0437
:1043C000A0781049097840EA01000E490870207869
:1043D0000D49085C617840EA010014F82F190A4A77
:1043E000505401E0012060856469FCF71EF894F8E0
:1043F0002D003F28D3D110BD700000104F000010D9
:1044000064000010460000104700001070470000D4
:1044100010B50A4800F10C02002106E000230370E9
:1044200042600C300C324B1CD9B20E29F6DB002353
:104430004360024B024C236010BD0000081A0020AC
:104440003000001010B50A4800F11002002106E00B
:10445000002303704260103010324B1C99B2432984
:10446000F6DB002303704360014B024C236010BD58
:10447000C81500202C00001000200A4908600A49D5
:1044800008700A4908700A4908700A4908700A4900
:1044900008600A4908600A4908600A4908600A4930
:1044A00008707047700000104100001043000010B9
:1044B000500000104F0000102800001054000010A1
:1044C0003C000010380000104000001000220B4B90
:1044D0001A700B49002004E0002201F8012B421C55
:1044E00090B20828F8DB0022064B1A70064B1A70AF
:1044F000064B1A60064B1A60704700004600001019
:10450000470000104400001045000010600000103B
:104510005800001010B500230E4C2360002005E069
:1045200000230D4C44F82030431CD8B24028F7DB60
:104530000A4901F13402002004E04A613431343286
:10454000431CD8B21528F8DB00234B61034B044C05
:10455000236010BD64000010BC220020BC2300209A
:104560005C00001000B585B0032000214FF480727C
:10457000074BCDE90132CDE903104FF6FF703F2321
:10458000044A00900448FFF717FE05B000BD000084
:10459000BC1E0020B8220020BD47000000B585B039
:1045A000032000214FF48072074BCDE90132CDE9A1
:1045B00003104FF6FE703E23044A00900448FFF7B4
:1045C000FBFD05B000BD0000BC1A0020B81E002095
:1045D000DD4700000E4800210EE04A1C02EB82027B
:1045E0000B4B03EB82024260002202600261C26058
:1045F000826014304A1C91B20E29EEDB0022426028
:1046000002600261C2608260014A024B1A60704718
:10461000342800206800001010B5094800F1180285
:10462000002104E00260183018324B1C99B20B29AB
:10463000F8DB00230360024B024C236010BD000036
:10464000602900206C00001010B5FBF7E5FE14484F
:10465000007810BB13480078F8B91348134909785B
:10466000445C1348005D1049085C00EBC40011492C
:104670000870084600781049097888420DD00F4824
:104680000C49097850F821000D4908600D48006870
:10469000401C0C490860FBF7E6FEFBF7C6FE10BDA8
:1046A0004100001043000010EAB70000460000106F
:1046B000470000104500001044000010BC220020FC
:1046C00060000010280000102DE9F05F05460E463E
:1046D00017469846DDE90BABDDF82890FBF79CFE0A
:1046E00030480468002C58D054F8140F2D49086045
:1046F000FBF79BFE44F8146C657600202076E08280
:1047000044F810AC44F8089C44F80C7C24F804BC31
:1047100024F8028CA077E810E076E07E2249085C5D
:10472000607705F00700A076A07E085C2077002067
:10473000A0602061E060A4F114042046FFF7EAFCC9
:104740002046FFF797FDFBF767FE184840F8254025
:104750001748006860610020A0611548006810B12A
:104760001348006884611248046004F12F04A078A3
:104770001049097840EA01000E49087020780E4976
:10478000085C617840EA010014F82F190A4A505475
:10479000FBF74BFE0020BDE8F09FFBF746FE4620EE
:1047A000F9E700005C000010E2B70000BC22002026
:1047B00064000010460000104700001000BF00BF5A
:1047C000FBF72AFE04480068401C03490860FBF719
:1047D0002CFEFFF750FDF3E75400001000BF03E08C
:1047E0004FF4C870FFF798FD194800780028F7D0FB
:1047F000184800686421B0FBF1F400BFFBF70CFE21
:1048000015480068154908601348066800201249D9
:104810000860FBF70AFE6CB1B6FBF4F0C0F164006F
:1048200045B2002D02DB0E4805700BE000200C495C
:10483000087007E000200A490870064800686421F3
:10484000B0FBF1F4FFF718FDC820FFF765FDD5E7D1
:104850004000001038000010540000103C00001010
:10486000340000107CB504460020019004F0800064
:10487000802817D104F01F000190012001AB0246EF
:1048800001460090A220FFF73FF9012001AB02464C
:1048900001460090A220FFF7E7F89DF8040000F021
:1048A0001F007CBD04F0400040281AD1012001AB5C
:1048B000024601460090A220FFF7D6F89DF80400BA
:1048C00000F01F059DF8040000F013000190012086
:1048D00001AB024601460090A220FFF715F92846D9
:1048E000DFE70020DDE73EB50446072001AB0222EA
:1048F00001210090A220FFF7B7F808B900203EBDC3
:104900009DF8040000F00F009DF80410C1F302119F
:1049100001EB810100EB410020709DF8050000F0E3
:104920000F009DF80510C1F3021101EB810100EBAE
:10493000410060709DF8060000F00F009DF8061021
:10494000C1F3011101EB810100EB4100A0709DF862
:10495000070000F00F009DF80710C1F3011101EBF3
:10496000810100EB4100E0709DF8080000F00700B5
:104970009DF8081001F00701091101EB810100EB1E
:10498000410020719DF8090010F0800F1BD09DF8A8
:10499000090000F00F009DF80910C1F3001101EBB0
:1049A000810100EB410060719DF80A0000F00F00EA
:1049B0009DF80A10091101EB810100EB410000F59F
:1049C000FA60E0801AE09DF8090000F00F009DF801
:1049D0000910C1F3001101EB810100EB410060718E
:1049E0009DF80A0000F00F009DF80A10091101EB74
:1049F000810100EB410000F26C70E08001207EE755
:104A00001CB50446012C02D10020019001E02020B9
:104A10000190012001AB002201460090A220FFF787
:104A200073F81CBD3EB5044620780A2190FBF1F2D4
:104A300001FB120021780A2291FBF2F140EA0110F9
:104A4000C0B28DF8040060780A2190FBF1F201FBFE
:104A5000120061780A2291FBF2F140EA0110C0B223
:104A60008DF80500A0780A2190FBF1F201FB1200FD
:104A7000A1780A2291FBF2F140EA0110C0B28DF850
:104A80000600E0780A2190FBF1F201FB1200E178C8
:104A90000A2291FBF2F140EA0110C0B28DF8070042
:104AA00020790A2190FBF1F201FB120021790A2200
:104AB00091FBF2F140EA0110C0B28DF80800607974
:104AC0000A2190FBF1F201FB120061790A2291FBAD
:104AD000F2F140EA0110C0B28DF80900E088B0F5AB
:104AE000FA6F17DB9DF8090040F080008DF809008F
:104AF000A079A0F5FA60C5B20A2095FBF0F100FBA1
:104B000011500A2195FBF1F140EA0110C0B28DF875
:104B10000A0010E0A079A0F26C70C5B20A2095FBE3
:104B2000F0F100FB11500A2195FBF1F140EA011070
:104B3000C0B28DF80A00072001AB022201210090CB
:104B4000A220FEF7E1FF3EBD7CB504460D468DF880
:104B500004408DF80550022001AB0E220121009087
:104B6000A220FEF7D1FF7CBD2DE9F04704460E469A
:104B700000250027A8462578682D71D1A178E07816
:104B800001EB00201FFA80F92179607901EB002008
:104B90001FFA80FA324621464B48FBF7BFFA677886
:104BA000B81C00F0FF08562F71D00CDC0E2F38D047
:104BB00004DC012F10D0042F77D11BE0122F3FD03F
:104BC0004E2F72D14DE0662F62D0722F4DD0762FCE
:104BD0005FD07E2F69D149E03C48007840F08000EA
:104BE0003A4908700846007820F0080008704FF035
:104BF00019085BE0A578072D08D100F0EBFE3348DB
:104C0000007840F040003149087009E0832D06D15A
:104C10002F48007820F002002D49087000E000BF06
:104C200044E0A579642D04D151464846FBF71FFEA8
:104C300005E0452D03D15146484600F0A3FA35E082
:104C4000A579672D0BD101F0B7FA2048007840F024
:104C500020001E4908705146484600F0CBFE25E072
:104C60002FE0384600F010FA20E01FE0304600F058
:104C700003FE1648007840F010001449087009F14E
:104C8000020188B200F0D6FE10E000E00DE000BFA7
:104C900000BF3846FBF7FCFDA278E17802EB01216A
:104CA000891C88B200F0C6FE00E000BF00BF464588
:104CB00006DDA6EB080291B204EB0800FFF754FFF3
:104CC00000BFBDE8F0870000141100205000002054
:104CD0000400001070B50546002405203B4981F80A
:104CE0004C00641C05F10C00204402680A60406816
:104CF0004860083405F10C00011934480A688260E4
:104D00004968C160083405F10C00011910222F48D0
:104D10001030FBF703FA05F10C00011910222C48A2
:104D2000FBF7FCF9103405F10C000119202227488B
:104D30002030FBF7F3F9203405F10C00011923486A
:104D40000A6802644968416404F10800C4B205F1CC
:104D50000C0001191D4809688164201DC4B2204659
:104D6000611CCCB205F10C01085C184981F84C00BB
:104D700005F10C00011915480988A0F84E10A01C77
:104D8000C4B205F10C000119104809680165201D25
:104D9000C4B205F10C0001190C4809684165201DD9
:104DA000C4B205F10C000119084809688165201D8D
:104DB000C4B205F10C000119102204485C30FBF765
:104DC000ADF904F11000C4B270BD00003014002031
:104DD000CE12002070B5054600240520314981F827
:104DE0004C00641C05F10C00204402680A60406815
:104DF0004860083405F10C00204402688A6040686D
:104E0000C860083405F10C00011920222548203023
:104E1000FBF784F9203405F10C00011921480A68D8
:104E2000026449684164083405F10C0001191D4809
:104E300009688164201DC4B22046611CCCB205F112
:104E40000C01085C174981F84C0005F10C000119B0
:104E500014480988A0F84E10A01CC4B205F10C003B
:104E60000119104809680165201DC4B205F10C0044
:104E700001190C4809684165201DC4B205F10C00F8
:104E80000119084809688165201DC4B205F10C00AC
:104E90000119102203485C30FBF740F904F11000BF
:104EA000C4B270BD3014002070B505460024641CE7
:104EB00005F10C002044344902680A6040684860EB
:104EC000083405F10C0001192F480A68826049680E
:104ED000C160083405F10C00011910222A4809307C
:104EE000FBF71CF9103405F10C000119264809687C
:104EF000C161241D05F10C000119234809680162F4
:104F0000201DC4B22046611CCCB205F10C01085C26
:104F10001D4981F8240005F10C0001191A4809887F
:104F2000C184A01CC4B205F10C000119164809681F
:104F30008162201DC4B205F10C00011912480968F4
:104F4000C162201DC4B205F10C0001190E480968A8
:104F50000163201DC4B205F10C0001190A4809685B
:104F60004163201DC4B205F10C000119064809680F
:104F70008163201DC4B205F10C00011902480968C3
:104F8000C163201DC4B270BD9C1400202DE9F04700
:104F90000746894615464FF000081648007A40F04B
:104FA000800014490872084647722C46224649463A
:104FB0001530FBF7B3F804F11500C4B2002606E083
:104FC0000C48805D404400F0FF08701CC6B2A64249
:104FD000F6DB2046611CCCB2064901F8008016229F
:104FE0002046611CCCB203490A5403480460BDE862
:104FF000F0870000742C0020D406001010B50422A5
:1050000002490E20FFF7C2FF10BD0000D6000020AD
:1050100010B5082202491220FFF7B8FF10BD0000AA
:105020007600002010B5082202491220FFF7AEFFDB
:1050300010BD00006E00002010B5042202490E20B1
:10504000FFF7A4FF10BD0000DA00002010B5062213
:1050500002491020FFF79AFF10BD0000E400002075
:1050600010B5042202490E20FFF790FF10BD00008A
:10507000E000002010B5042202490E20FFF786FF51
:1050800010BD0000D000002010B504460148FFF715
:105090000BFF10BD1411002000BF02E03220FFF70B
:1050A0003BF9FBE7134A50699169C1F30B42124B7C
:1050B000DA80C1F303225A7101F01F02DA70C0F3E3
:1050C00002621A71C0F304429A70C0F305225A704A
:1050D00000F03F021A700122064B1A70074A12783C
:1050E00042F08002054B1A70054A1268521C044BAC
:1050F0001A60704700400240A8060010040000102B
:105100000800001070B588B004460D464FF4807258
:105110000A490B48FBF702F80720094908810846AD
:105120004480A81C88806846FDF70FFC064632467E
:105130006946002003F038FB08B070BD1411002050
:105140001410002070B588B004460D464FF48072EC
:105150000A490B48FAF7E2FF0A2009490881201D95
:105160004880A81C88806846FDF7EFFB064632465B
:105170006946002003F018FB08B070BD1411002030
:105180001410002070B504460D462946204600F054
:1051900075FB642003F094F90F48006A40F48030F6
:1051A0000D4908620846C06B40F48030C86300F0C7
:1051B000B1F80A48007840F0020008490870084633
:1051C000007820F080000870032005490870054829
:1051D00000680549086070BD0080092000000010CB
:1051E00003000010080000101800001010B5074858
:1051F0000749D1F81210C0F86A1004226A216A30F7
:10520000FDF788FE042000F061FB10BD6C0000205B
:10521000742C002010B5074807490A6802604968E5
:10522000416008220A21FDF775FE052000F04EFBC3
:1052300010BD000076000020862C002010B5074825
:1052400007490A6802604968416008220221FDF7A7
:1052500061FE052000F03AFB10BD00006E0000204A
:10526000862C002010B507480749D1F81210C0F865
:105270006E1004226E216E30FDF74CFE042000F00B
:1052800025FB10BD6C000020742C002010B50848D0
:105290000849D1F812208267C98AA0F87C1006223A
:1052A00078217830FDF736FE042000F00FFB10BDAA
:1052B0006C000020742C002010B507480749D1F875
:1052C00012104167042274217430FDF723FE04207C
:1052D00000F0FCFA10BD00006C000020742C0020CF
:1052E00010B50A480A49D1F8121041660422642117
:1052F0006430FDF70FFE04224FF4B27103486430AE
:10530000FDF708FE042000F0E1FA10BD6C0000205B
:10531000742C0020404A12784FF47A7302FB03F198
:10532000CA1701EB12621212A1EB0222D0B23B4962
:1053300081F84100384A127802FB03F1CA1701EBE9
:105340001262C2F30720354981F8420032494A7897
:10535000324981F8432030498A78304981F8442025
:105360002D49C9782C4A127901EB4211CAB22B4956
:1053700081F8452028494A79284981F8462026495C
:10538000C9885A0091FBF2F302FB1311CAB22349F8
:1053900081F84720204A12784FF47A7302FB03F118
:1053A000CA1701EB12621212A1EB0222D0B21C4901
:1053B00081F84000184A127802FB03F1CA1701EB8A
:1053C0001262C2F30720164981F8410012494A7857
:1053D000134981F8422010498A78114981F8432005
:1053E0000D49C9780C4A127901EB4211CAB20C4935
:1053F00081F8442008494A79094981F8452006493D
:10540000C9885A0091FBF2F302FB1311CAB2044996
:1054100081F8462070470000A8060010A412002062
:1054200054130020404A12784FF47A7302FB03F1C0
:10543000CA1701EB12621212A1EB0222D0B23B4951
:1054400081F83A00384A127802FB03F1CA1701EBDF
:105450001262C2F30720354981F83B0032494A788D
:10546000324981F83C2030498A78304981F83D2022
:105470002D49C9782C4A127901EB4211CAB22B4945
:1054800081F83E2028494A79284981F83F20264959
:10549000C9885A0091FBF2F302FB1311CAB22349E7
:1054A00081F84020204A12784FF47A7302FB03F10E
:1054B000CA1701EB12621212A1EB0222D0B21C49F0
:1054C00081F83900184A127802FB03F1CA1701EB80
:1054D0001262C2F30720164981F83A0012494A784D
:1054E000134981F83B2010498A78114981F83C2002
:1054F0000D49C9780C4A127901EB4211CAB20C4924
:1055000081F83D2008494A79094981F83E20064939
:10551000C9885A0091FBF2F302FB1311CAB2044985
:1055200081F83F2070470000A8060010A412002058
:105530005413002030B599B0054660216846FAF74B
:1055400015FE012241F2037118A8FDF7ABFC9DF88E
:10555000600030B1102241F210712846FDF7A2FC24
:1055600004E010221E492846FAF7D8FD1D480078AD
:1055700085F8200010221C4905F11000FAF7CEFD35
:1055800060221A496846FAF7C9FD002424E004EBBA
:10559000440105F1210000EB4100694601EB840163
:1055A00009680160012000EB44001149095C04EB2B
:1055B0004400042202EB400205F1210081540C4812
:1055C00010F8141004EB4400052202EB400205F130
:1055D00021008154601CC4B2182CD8DB19B030BD36
:1055E0008C140020CA0600101C6D00102C6D0010D9
:1055F000FC6D001070B500242A4800210160416054
:105600008160C16001202749088201F1120026490A
:105610000A68026049684160244801680068401CCB
:10562000224A106042F20F70814202D300201146DC
:10563000086000F013F9241D1D48C0884FF4FA617A
:1056400090FBF1F201FB1200C5B2284602F0B2FB5A
:105650002146641C134A50541549487902F0AAFBAC
:105660002146641C0F4A50541149C87802F0A2FB2D
:105670002146641C0B4A50540D49887802F09AFB6D
:105680002146641C074A50541046204402F112017E
:105690000A6802604968416002200249A1F87C0062
:1056A00070BD0000A41200206E0000200000002049
:1056B000A806001000202349096841F40011224A7D
:1056C000C2F8C41021490968C8B2042802DA0421CA
:1056D0001E4A11601E49C96B21F007011C4AD163A3
:1056E0001146C96B41F00201D1631146496C21F0AA
:1056F000070151641146496C41F0020151641146A1
:10570000896C21F0070191641146896C41F0020116
:1057100091641146096C21F0070111640D49096873
:1057200041F480310B4A11601146896941F480319E
:10573000916140F60701084A11604FF002011161C2
:1057400051607047C4C00F4000C00F40A8C10F4057
:1057500000C002400080092000800840002023494A
:10576000096841F48061224AC2F8C41021490968DD
:10577000C8B2042802DA04211E4A11601E49C96910
:1057800021F007011C4AD1611146C96941F00201AB
:10579000D1611146096A21F0070111621146096AB7
:1057A00041F0020111621146496A21F0070151627C
:1057B0001146496A41F0020151621146896921F09E
:1057C000070191610D49096841F040010B4A1160E0
:1057D0001146896941F04001916140F60701084A8C
:1057E00011604FF00201116151607047C4C00F4059
:1057F00000C00F40A8C10F4000C002400080092037
:1058000000000340014601E08A68D0B2CA6802F095
:105810000402042AF8D000BFCA6812F0010FFBD0BE
:10582000FF228A6000BFCA6802F01002102AFAD074
:1058300000BFCA6812F0040FFBD08A68D0B270476C
:1058400000BFC26812F0020FFBD0816000BFC268C7
:1058500002F01002102AFAD07047000010B5FAF7D3
:10586000DBFD042211020348FDF754FBFAF7DDFDCE
:1058700010BD0000000000207047000070B588B027
:1058800004460D464FF480720E490F48FAF746FC65
:1058900007200D49088108464480A81C88800846D6
:1058A0004089401C488101210748817401466846AF
:1058B000FDF74BF8064632466946002002F074FFB9
:1058C00008B070BD141100201410002070B50246FD
:1058D00000231C4C247A44F080041A4D2C722C4670
:1058E00062720024AC72EC722C46247C2C732C4621
:1058F000647C6C73002006E0002500F10E04114E5C
:105900003555441CE0B2D41E8442F5DC00F10E048F
:10591000E1B2002005E00B4C245C1C44E3B2441CC3
:10592000E0B28842F7DB0C464D1CE9B2054D2B5521
:1059300016260C464D1CE9B2024D2E55024C216034
:1059400070BD0000742C0020D40600101CB505A109
:1059500003C9CDE9000106226946002002F024FFB8
:105960001CBD0000680443000000000030B589B091
:1059700004460022214601A8FDF77EF805462A4686
:1059800001A9002002F010FFC0B209B030BD30B54F
:10599000C1B004468220A0710120E0710320208163
:1059A00000206081FFF726FE2046FDF795F80546AA
:1059B00005F10A006070214601A8FCF7C6FF054604
:1059C0002A4601A9002002F0EFFE6088801C60805A
:1059D00041B030BD1CB505A103C9CDE900010622C7
:1059E0006946002002F0E0FE1CBD000068040B00C8
:1059F0000000000070B588B004460D464FF4807278
:105A00000A490B48FAF78AFB07200949088108462A
:105A10004480A81C88806846FCF797FF06463246FB
:105A20006946002002F0C0FE08B070BD14110020CD
:105A3000141000201CB504460CA103C9CDE90001D7
:105A40002046E11704EB11610912A4EB0121C9B250
:105A50008DF80410E11704EB1161090A8DF80510A7
:105A600006226946002002F09FFE1CBD680401006A
:105A70000000000030B5C1B004467920A0710120BB
:105A8000E07102202081002060810C48FFF752FD68
:105A90002046FCF7BFFF054605F10A00607021466D
:105AA00001A8FCF752FF05462A4601A9002002F092
:105AB0007BFE6088801C608041B030BD14150020E2
:105AC00070B5024602EB8214134D2C44645C14F052
:105AD000200F00D070BD921E891E002017E0002309
